{
  "contractName": "Wallets",
  "abi": [
    {
      "constant": true,
      "inputs": [],
      "name": "num1",
      "outputs": [
        {
          "name": "",
          "type": "uint256"
        }
      ],
      "payable": false,
      "stateMutability": "view",
      "type": "function"
    },
    {
      "inputs": [],
      "payable": false,
      "stateMutability": "nonpayable",
      "type": "constructor"
    },
    {
      "payable": true,
      "stateMutability": "payable",
      "type": "fallback"
    },
    {
      "anonymous": false,
      "inputs": [
        {
          "indexed": false,
          "name": "s",
          "type": "string"
        },
        {
          "indexed": false,
          "name": "_value",
          "type": "uint256"
        }
      ],
      "name": "MyLog",
      "type": "event"
    },
    {
      "constant": false,
      "inputs": [
        {
          "name": "amount",
          "type": "uint256"
        }
      ],
      "name": "save",
      "outputs": [],
      "payable": true,
      "stateMutability": "payable",
      "type": "function"
    },
    {
      "constant": false,
      "inputs": [
        {
          "name": "amount",
          "type": "uint256"
        },
        {
          "name": "recipient",
          "type": "address"
        }
      ],
      "name": "spend",
      "outputs": [],
      "payable": false,
      "stateMutability": "nonpayable",
      "type": "function"
    },
    {
      "constant": true,
      "inputs": [],
      "name": "balance",
      "outputs": [
        {
          "name": "",
          "type": "uint256"
        }
      ],
      "payable": false,
      "stateMutability": "view",
      "type": "function"
    },
    {
      "constant": false,
      "inputs": [
        {
          "name": "num",
          "type": "uint256"
        }
      ],
      "name": "setTest",
      "outputs": [],
      "payable": false,
      "stateMutability": "nonpayable",
      "type": "function"
    },
    {
      "constant": true,
      "inputs": [],
      "name": "getTest",
      "outputs": [
        {
          "name": "",
          "type": "uint256"
        }
      ],
      "payable": false,
      "stateMutability": "view",
      "type": "function"
    },
    {
      "constant": false,
      "inputs": [
        {
          "name": "dai",
          "type": "address"
        },
        {
          "name": "cDai",
          "type": "address"
        },
        {
          "name": "_numTokensToSupply",
          "type": "uint256"
        }
      ],
      "name": "supplyDAIToCompound",
      "outputs": [
        {
          "name": "",
          "type": "uint256"
        }
      ],
      "payable": false,
      "stateMutability": "nonpayable",
      "type": "function"
    },
    {
      "constant": false,
      "inputs": [
        {
          "name": "amount",
          "type": "uint256"
        },
        {
          "name": "redeemType",
          "type": "bool"
        },
        {
          "name": "cDai",
          "type": "address"
        }
      ],
      "name": "redeemCDai",
      "outputs": [
        {
          "name": "",
          "type": "bool"
        }
      ],
      "payable": false,
      "stateMutability": "nonpayable",
      "type": "function"
    }
  ],
  "bytecode": "0x6080604052736b175474e89094c44da98b954eedeac495271d0f600160006101000a81548173ffffffffffffffffffffffffffffffffffffffff021916908373ffffffffffffffffffffffffffffffffffffffff16021790555073c2cb1040220768554cf699b0d863a3cd4324ce32600260006101000a81548173ffffffffffffffffffffffffffffffffffffffff021916908373ffffffffffffffffffffffffffffffffffffffff160217905550735d3a536e4d6dbd6114cc1ead35777bab948e3643600360006101000a81548173ffffffffffffffffffffffffffffffffffffffff021916908373ffffffffffffffffffffffffffffffffffffffff16021790555034801561010f57600080fd5b50336000806101000a81548173ffffffffffffffffffffffffffffffffffffffff021916908373ffffffffffffffffffffffffffffffffffffffff1602179055506111c98061015f6000396000f3fe60806040526004361061008e576000357c0100000000000000000000000000000000000000000000000000000000900463ffffffff1680631b862027146100905780631e9f59db146100be5780633b9eac4b146101195780635a834422146101445780636ca1f933146101d3578063a8cd0a801461020e578063a8e1a6ed14610239578063b69ef8a8146102b8575b005b6100bc600480360360208110156100a657600080fd5b81019080803590602001909291905050506102e3565b005b3480156100ca57600080fd5b50610117600480360360408110156100e157600080fd5b8101908080359060200190929190803573ffffffffffffffffffffffffffffffffffffffff169060200190929190505050610424565b005b34801561012557600080fd5b5061012e61089f565b6040518082815260200191505060405180910390f35b34801561015057600080fd5b506101bd6004803603606081101561016757600080fd5b81019080803573ffffffffffffffffffffffffffffffffffffffff169060200190929190803573ffffffffffffffffffffffffffffffffffffffff169060200190929190803590602001909291905050506108a5565b6040518082815260200191505060405180910390f35b3480156101df57600080fd5b5061020c600480360360208110156101f657600080fd5b8101908080359060200190929190505050610c72565b005b34801561021a57600080fd5b50610223610c7c565b6040518082815260200191505060405180910390f35b34801561024557600080fd5b5061029e6004803603606081101561025c57600080fd5b8101908080359060200190929190803515159060200190929190803573ffffffffffffffffffffffffffffffffffffffff169060200190929190505050610c86565b604051808215151515815260200191505060405180910390f35b3480156102c457600080fd5b506102cd610e06565b6040518082815260200191505060405180910390f35b600160009054906101000a900473ffffffffffffffffffffffffffffffffffffffff1673ffffffffffffffffffffffffffffffffffffffff166323b872dd3330846040518463ffffffff167c0100000000000000000000000000000000000000000000000000000000028152600401808473ffffffffffffffffffffffffffffffffffffffff1673ffffffffffffffffffffffffffffffffffffffff1681526020018373ffffffffffffffffffffffffffffffffffffffff1673ffffffffffffffffffffffffffffffffffffffff1681526020018281526020019350505050602060405180830381600087803b1580156103dc57600080fd5b505af11580156103f0573d6000803e3d6000fd5b505050506040513d602081101561040657600080fd5b81019080805190602001909291905050505061042181610fce565b50565b6000809054906101000a900473ffffffffffffffffffffffffffffffffffffffff1673ffffffffffffffffffffffffffffffffffffffff163373ffffffffffffffffffffffffffffffffffffffff161415156104e8576040517f08c379a000000000000000000000000000000000000000000000000000000000815260040180806020018281038252600a8152602001807f6f6e6c792061646d696e0000000000000000000000000000000000000000000081525060200191505060405180910390fd5b6000600260009054906101000a900473ffffffffffffffffffffffffffffffffffffffff1673ffffffffffffffffffffffffffffffffffffffff166370a08231306040518263ffffffff167c0100000000000000000000000000000000000000000000000000000000028152600401808273ffffffffffffffffffffffffffffffffffffffff1673ffffffffffffffffffffffffffffffffffffffff16815260200191505060206040518083038186803b1580156105a557600080fd5b505afa1580156105b9573d6000803e3d6000fd5b505050506040513d60208110156105cf57600080fd5b81019080805190602001909291905050509050600260009054906101000a900473ffffffffffffffffffffffffffffffffffffffff1673ffffffffffffffffffffffffffffffffffffffff16632e1a7d4d826040518263ffffffff167c010000000000000000000000000000000000000000000000000000000002815260040180828152602001915050600060405180830381600087803b15801561067357600080fd5b505af1158015610687573d6000803e3d6000fd5b50505050600160009054906101000a900473ffffffffffffffffffffffffffffffffffffffff1673ffffffffffffffffffffffffffffffffffffffff1663a9059cbb83856040518363ffffffff167c0100000000000000000000000000000000000000000000000000000000028152600401808373ffffffffffffffffffffffffffffffffffffffff1673ffffffffffffffffffffffffffffffffffffffff16815260200182815260200192505050602060405180830381600087803b15801561075057600080fd5b505af1158015610764573d6000803e3d6000fd5b505050506040513d602081101561077a57600080fd5b8101908080519060200190929190505050506000600160009054906101000a900473ffffffffffffffffffffffffffffffffffffffff1673ffffffffffffffffffffffffffffffffffffffff166370a08231306040518263ffffffff167c0100000000000000000000000000000000000000000000000000000000028152600401808273ffffffffffffffffffffffffffffffffffffffff1673ffffffffffffffffffffffffffffffffffffffff16815260200191505060206040518083038186803b15801561084957600080fd5b505afa15801561085d573d6000803e3d6000fd5b505050506040513d602081101561087357600080fd5b8101908080519060200190929190505050905060008111156108995761089881610fce565b5b50505050565b60045481565b600080849050600084905060008173ffffffffffffffffffffffffffffffffffffffff1663bd6d894d6040518163ffffffff167c0100000000000000000000000000000000000000000000000000000000028152600401602060405180830381600087803b15801561091657600080fd5b505af115801561092a573d6000803e3d6000fd5b505050506040513d602081101561094057600080fd5b810190808051906020019092919050505090507f8d1cced004452bd270777a8c670f9f7e7c4fdde56f2db331fe289d39dc2624ad8160405180806020018381526020018281038252601b8152602001807f45786368616e6765205261746520287363616c6564207570293a2000000000008152506020019250505060405180910390a160008273ffffffffffffffffffffffffffffffffffffffff1663ae9d70b06040518163ffffffff167c0100000000000000000000000000000000000000000000000000000000028152600401602060405180830381600087803b158015610a2957600080fd5b505af1158015610a3d573d6000803e3d6000fd5b505050506040513d6020811015610a5357600080fd5b810190808051906020019092919050505090507f8d1cced004452bd270777a8c670f9f7e7c4fdde56f2db331fe289d39dc2624ad816040518080602001838152602001828103825260188152602001807f537570706c7920526174653a20287363616c65642075702900000000000000008152506020019250505060405180910390a18373ffffffffffffffffffffffffffffffffffffffff1663095ea7b388886040518363ffffffff167c0100000000000000000000000000000000000000000000000000000000028152600401808373ffffffffffffffffffffffffffffffffffffffff1673ffffffffffffffffffffffffffffffffffffffff16815260200182815260200192505050602060405180830381600087803b158015610b7957600080fd5b505af1158015610b8d573d6000803e3d6000fd5b505050506040513d6020811015610ba357600080fd5b81019080805190602001909291905050505060008373ffffffffffffffffffffffffffffffffffffffff1663a0712d68886040518263ffffffff167c010000000000000000000000000000000000000000000000000000000002815260040180828152602001915050602060405180830381600087803b158015610c2657600080fd5b505af1158015610c3a573d6000803e3d6000fd5b505050506040513d6020811015610c5057600080fd5b8101908080519060200190929190505050905080955050505050509392505050565b8060048190555050565b6000600454905090565b6000808290506000600115158515151415610d4c578173ffffffffffffffffffffffffffffffffffffffff1663db006a75876040518263ffffffff167c010000000000000000000000000000000000000000000000000000000002815260040180828152602001915050602060405180830381600087803b158015610d0a57600080fd5b505af1158015610d1e573d6000803e3d6000fd5b505050506040513d6020811015610d3457600080fd5b81019080805190602001909291905050509050610df9565b8173ffffffffffffffffffffffffffffffffffffffff1663852a12e3876040518263ffffffff167c010000000000000000000000000000000000000000000000000000000002815260040180828152602001915050602060405180830381600087803b158015610dbb57600080fd5b505af1158015610dcf573d6000803e3d6000fd5b505050506040513d6020811015610de557600080fd5b810190808051906020019092919050505090505b6001925050509392505050565b600080600260009054906101000a900473ffffffffffffffffffffffffffffffffffffffff1673ffffffffffffffffffffffffffffffffffffffff166377c7b8fc6040518163ffffffff167c010000000000000000000000000000000000000000000000000000000002815260040160206040518083038186803b158015610e8d57600080fd5b505afa158015610ea1573d6000803e3d6000fd5b505050506040513d6020811015610eb757600080fd5b810190808051906020019092919050505090506000600260009054906101000a900473ffffffffffffffffffffffffffffffffffffffff1673ffffffffffffffffffffffffffffffffffffffff166370a08231306040518263ffffffff167c0100000000000000000000000000000000000000000000000000000000028152600401808273ffffffffffffffffffffffffffffffffffffffff1673ffffffffffffffffffffffffffffffffffffffff16815260200191505060206040518083038186803b158015610f8757600080fd5b505afa158015610f9b573d6000803e3d6000fd5b505050506040513d6020811015610fb157600080fd5b810190808051906020019092919050505090508181029250505090565b600160009054906101000a900473ffffffffffffffffffffffffffffffffffffffff1673ffffffffffffffffffffffffffffffffffffffff1663095ea7b3600260009054906101000a900473ffffffffffffffffffffffffffffffffffffffff16836040518363ffffffff167c0100000000000000000000000000000000000000000000000000000000028152600401808373ffffffffffffffffffffffffffffffffffffffff1673ffffffffffffffffffffffffffffffffffffffff16815260200182815260200192505050602060405180830381600087803b1580156110b557600080fd5b505af11580156110c9573d6000803e3d6000fd5b505050506040513d60208110156110df57600080fd5b810190808051906020019092919050505050600260009054906101000a900473ffffffffffffffffffffffffffffffffffffffff1673ffffffffffffffffffffffffffffffffffffffff1663b6b55f25826040518263ffffffff167c010000000000000000000000000000000000000000000000000000000002815260040180828152602001915050600060405180830381600087803b15801561118257600080fd5b505af1158015611196573d6000803e3d6000fd5b505050505056fea165627a7a72305820a9aac72a999e31ec12e540ae01e2c2c1456ae9eee006e57ed935f39cde06b7c50029",
  "source": "pragma solidity ^0.5.0;\r\nimport '@openzeppelin/contracts/token/ERC20/IERC20.sol';\r\nimport './IUniswapV2Router02.sol';\r\n\r\ninterface IYDAI {\r\n    function deposit (uint _amount) external;\r\n    function withdraw(uint _shares) external;\r\n    function balanceOf(address account) external view returns (uint);\r\n    function getPricePerFullShare() external view returns (uint);\r\n}\r\n\r\ninterface CERC20 {\r\n    function mint(uint256) external returns (uint256);\r\n    function exchangeRateCurrent() external returns(uint256);\r\n    function supplyRatePerBlock() external returns(uint256);\r\n    function redeem(uint) external returns(uint);\r\n    function redeemUnderlying(uint) external returns(uint);\r\n}\r\n\r\n\r\n\r\n// interface LendingPoolAddressesProvider {\r\n//     function deposit( address _reserve, uint256 _amount, uint16 _referralCode) external;\r\n//     function getLendingPool() external view returns (address) ;\r\n//     function getLendingPoolCore() external view returns (address payable) ;\r\n// }\r\n\r\n// interface LendingPool{\r\n//     function deposit( address _reserve, uint256 _amount, uint16 _referralCode) external;\r\n// }\r\n\r\ncontract Wallets {\r\n    address admin;\r\n    IERC20 dai = IERC20(0x6B175474E89094C44Da98b954EedeAC495271d0F);\r\n    IYDAI yDai = IYDAI(0xC2cB1040220768554cf699b0d863A3cd4324ce32);\r\n    CERC20 cDai = CERC20(0x5d3a536E4D6DbD6114cc1Ead35777bAB948E3643);\r\n    uint public num1;\r\n\r\n    IUniswapV2Router02 uniswap;\r\n    event MyLog(string s, uint256 _value);\r\n\r\n    // Retrieve LendingPool address\r\n    // LendingPoolAddressesProvider provider;  // mainnet address, for other addresses: https://docs.aave.com/developers/developing-on-aave/deployed-contract-instances\r\n    // LendingPool lendingPool;\r\n\r\n    // address ETHER = address(0xEeeeeEeeeEeEeeEeEeEeeEEEeeeeEeeeeeeeEEeE);\r\n    // uint256 amount = 10 * 1e18;\r\n    // uint16 referral = 0;\r\n\r\n    constructor() public {\r\n       // address uniswapAddress, address daiAddress\r\n        admin = msg.sender;\r\n        //uniswap = IUniswapV2Router02(uniswapAddress);\r\n        //dai = IERC20(0x6B175474E89094C44Da98b954EedeAC495271d0F);\r\n        //cDai = CERC20(0x5d3a536E4D6DbD6114cc1Ead35777bAB948E3643);\r\n    }\r\n\r\n    function save(uint amount) external payable {\r\n        dai.transferFrom(msg.sender, address(this), amount);\r\n        _save(amount);\r\n        \r\n    }\r\n\r\n    function spend(uint amount, address recipient) external {\r\n        require(msg.sender == admin, 'only admin');\r\n        uint balanceShares = yDai.balanceOf(address(this));\r\n        yDai.withdraw(balanceShares);\r\n        dai.transfer(recipient, amount);\r\n        uint balanceDai = dai.balanceOf(address(this));\r\n        if(balanceDai>0){\r\n            _save(balanceDai);\r\n        }\r\n    }\r\n\r\n    function _save(uint amount) internal {\r\n        dai.approve(address(yDai), amount);\r\n        yDai.deposit(amount);\r\n    }\r\n\r\n    function balance() external view returns(uint) {\r\n        uint price = yDai.getPricePerFullShare();\r\n        uint balanceShares = yDai.balanceOf(address(this));\r\n        return balanceShares * price;\r\n    }\r\n\r\n    function setTest(uint num) public{\r\n        num1 = num;\r\n    }\r\n\r\n    function getTest() public view returns(uint){\r\n        return num1;\r\n    }\r\n\r\n    function supplyDAIToCompound(address dai, address cDai, uint256 _numTokensToSupply) public returns (uint){\r\n        IERC20 underlying = IERC20(dai);\r\n        CERC20 cToken = CERC20(cDai);\r\n        \r\n         uint256 exchangeRateMantissa = cToken.exchangeRateCurrent();\r\n         emit MyLog(\"Exchange Rate (scaled up): \", exchangeRateMantissa);\r\n\r\n         uint256 supplyRateMantissa = cToken.supplyRatePerBlock();\r\n         emit MyLog(\"Supply Rate: (scaled up)\", supplyRateMantissa);\r\n\r\n        \r\n\r\n        underlying.approve(address(cDai), _numTokensToSupply);\r\n\r\n        uint mintResult = cToken.mint(_numTokensToSupply);\r\n        return mintResult;\r\n    }\r\n\r\n    function redeemCDai(uint256 amount, bool redeemType, address cDai) public returns (bool) {\r\n        CERC20 cToken = CERC20(cDai);\r\n\r\n        uint256 redeemResult;\r\n\r\n        if(redeemType == true) {\r\n            redeemResult = cToken.redeem(amount);\r\n        }\r\n        else {\r\n            redeemResult = cToken.redeemUnderlying(amount);\r\n        }\r\n\r\n        return true;\r\n    }\r\n\r\n    function() external payable {}\r\n\r\n    \r\n\r\n}",
  "sourcePath": "D:/Users/victo/Desktop/Crypto Programming/DeFi/Compound wallet/contracts/Wallets.sol",
  "compiler": {
    "name": "solc",
    "version": "0.5.0+commit.1d4f565a.Emscripten.clang"
  },
  "schemaVersion": "3.3.2",
  "updatedAt": "2020-11-28T00:47:00.579Z",
  "networkType": "ethereum",
  "devdoc": {
    "methods": {}
  },
  "userdoc": {
    "methods": {}
  }
}