{
  "contractName": "Wallets",
  "abi": [
    {
      "constant": true,
      "inputs": [],
      "name": "num1",
      "outputs": [
        {
          "name": "",
          "type": "uint256"
        }
      ],
      "payable": false,
      "stateMutability": "view",
      "type": "function"
    },
    {
      "inputs": [],
      "payable": false,
      "stateMutability": "nonpayable",
      "type": "constructor"
    },
    {
      "payable": true,
      "stateMutability": "payable",
      "type": "fallback"
    },
    {
      "anonymous": false,
      "inputs": [
        {
          "indexed": false,
          "name": "s",
          "type": "string"
        },
        {
          "indexed": false,
          "name": "_value",
          "type": "uint256"
        }
      ],
      "name": "MyLog",
      "type": "event"
    },
    {
      "constant": false,
      "inputs": [
        {
          "name": "amount",
          "type": "uint256"
        }
      ],
      "name": "save",
      "outputs": [],
      "payable": true,
      "stateMutability": "payable",
      "type": "function"
    },
    {
      "constant": false,
      "inputs": [
        {
          "name": "amount",
          "type": "uint256"
        },
        {
          "name": "recipient",
          "type": "address"
        }
      ],
      "name": "spend",
      "outputs": [],
      "payable": false,
      "stateMutability": "nonpayable",
      "type": "function"
    },
    {
      "constant": true,
      "inputs": [],
      "name": "balance",
      "outputs": [
        {
          "name": "",
          "type": "uint256"
        }
      ],
      "payable": false,
      "stateMutability": "view",
      "type": "function"
    },
    {
      "constant": false,
      "inputs": [
        {
          "name": "dai",
          "type": "address"
        },
        {
          "name": "cDai",
          "type": "address"
        },
        {
          "name": "_numTokensToSupply",
          "type": "uint256"
        }
      ],
      "name": "supplyDAIToCompound",
      "outputs": [
        {
          "name": "",
          "type": "uint256"
        }
      ],
      "payable": false,
      "stateMutability": "nonpayable",
      "type": "function"
    },
    {
      "constant": false,
      "inputs": [
        {
          "name": "amount",
          "type": "uint256"
        },
        {
          "name": "redeemType",
          "type": "bool"
        },
        {
          "name": "cDai",
          "type": "address"
        }
      ],
      "name": "redeemCDai",
      "outputs": [
        {
          "name": "",
          "type": "bool"
        }
      ],
      "payable": false,
      "stateMutability": "nonpayable",
      "type": "function"
    },
    {
      "constant": true,
      "inputs": [],
      "name": "getLendingAddress",
      "outputs": [
        {
          "name": "",
          "type": "address"
        }
      ],
      "payable": false,
      "stateMutability": "view",
      "type": "function"
    },
    {
      "constant": false,
      "inputs": [
        {
          "name": "dai",
          "type": "address"
        },
        {
          "name": "amount",
          "type": "uint256"
        },
        {
          "name": "to",
          "type": "address"
        }
      ],
      "name": "depositToAave",
      "outputs": [],
      "payable": false,
      "stateMutability": "nonpayable",
      "type": "function"
    },
    {
      "constant": false,
      "inputs": [
        {
          "name": "amount",
          "type": "uint256"
        }
      ],
      "name": "borrowFromAave",
      "outputs": [],
      "payable": false,
      "stateMutability": "nonpayable",
      "type": "function"
    }
  ],
  "bytecode": "0x6080604052736b175474e89094c44da98b954eedeac495271d0f600160006101000a81548173ffffffffffffffffffffffffffffffffffffffff021916908373ffffffffffffffffffffffffffffffffffffffff16021790555073c2cb1040220768554cf699b0d863a3cd4324ce32600260006101000a81548173ffffffffffffffffffffffffffffffffffffffff021916908373ffffffffffffffffffffffffffffffffffffffff160217905550735d3a536e4d6dbd6114cc1ead35777bab948e3643600360006101000a81548173ffffffffffffffffffffffffffffffffffffffff021916908373ffffffffffffffffffffffffffffffffffffffff16021790555073b53c1a33016b2dc2ff3653530bff1848a515c8c5600460006101000a81548173ffffffffffffffffffffffffffffffffffffffff021916908373ffffffffffffffffffffffffffffffffffffffff16021790555034801561016457600080fd5b50336000806101000a81548173ffffffffffffffffffffffffffffffffffffffff021916908373ffffffffffffffffffffffffffffffffffffffff1602179055506116cb806101b46000396000f3fe608060405260043610610099576000357c0100000000000000000000000000000000000000000000000000000000900463ffffffff168063179d342f1461009b5780631b862027146100f25780631e9f59db146101205780633b9eac4b1461017b5780635a834422146101a6578063a8e1a6ed14610235578063b69ef8a8146102b4578063d8e5c62d146102df578063e5e593711461031a575b005b3480156100a757600080fd5b506100b0610395565b604051808273ffffffffffffffffffffffffffffffffffffffff1673ffffffffffffffffffffffffffffffffffffffff16815260200191505060405180910390f35b61011e6004803603602081101561010857600080fd5b810190808035906020019092919050505061045b565b005b34801561012c57600080fd5b506101796004803603604081101561014357600080fd5b8101908080359060200190929190803573ffffffffffffffffffffffffffffffffffffffff16906020019092919050505061059c565b005b34801561018757600080fd5b50610190610a17565b6040518082815260200191505060405180910390f35b3480156101b257600080fd5b5061021f600480360360608110156101c957600080fd5b81019080803573ffffffffffffffffffffffffffffffffffffffff169060200190929190803573ffffffffffffffffffffffffffffffffffffffff16906020019092919080359060200190929190505050610a1d565b6040518082815260200191505060405180910390f35b34801561024157600080fd5b5061029a6004803603606081101561025857600080fd5b8101908080359060200190929190803515159060200190929190803573ffffffffffffffffffffffffffffffffffffffff169060200190929190505050610dea565b604051808215151515815260200191505060405180910390f35b3480156102c057600080fd5b506102c9610f6a565b6040518082815260200191505060405180910390f35b3480156102eb57600080fd5b506103186004803603602081101561030257600080fd5b8101908080359060200190929190505050611132565b005b34801561032657600080fd5b506103936004803603606081101561033d57600080fd5b81019080803573ffffffffffffffffffffffffffffffffffffffff16906020019092919080359060200190929190803573ffffffffffffffffffffffffffffffffffffffff169060200190929190505050611267565b005b6000600460009054906101000a900473ffffffffffffffffffffffffffffffffffffffff1673ffffffffffffffffffffffffffffffffffffffff16630261bf8b6040518163ffffffff167c010000000000000000000000000000000000000000000000000000000002815260040160206040518083038186803b15801561041b57600080fd5b505afa15801561042f573d6000803e3d6000fd5b505050506040513d602081101561044557600080fd5b8101908080519060200190929190505050905090565b600160009054906101000a900473ffffffffffffffffffffffffffffffffffffffff1673ffffffffffffffffffffffffffffffffffffffff166323b872dd3330846040518463ffffffff167c0100000000000000000000000000000000000000000000000000000000028152600401808473ffffffffffffffffffffffffffffffffffffffff1673ffffffffffffffffffffffffffffffffffffffff1681526020018373ffffffffffffffffffffffffffffffffffffffff1673ffffffffffffffffffffffffffffffffffffffff1681526020018281526020019350505050602060405180830381600087803b15801561055457600080fd5b505af1158015610568573d6000803e3d6000fd5b505050506040513d602081101561057e57600080fd5b810190808051906020019092919050505050610599816114d0565b50565b6000809054906101000a900473ffffffffffffffffffffffffffffffffffffffff1673ffffffffffffffffffffffffffffffffffffffff163373ffffffffffffffffffffffffffffffffffffffff16141515610660576040517f08c379a000000000000000000000000000000000000000000000000000000000815260040180806020018281038252600a8152602001807f6f6e6c792061646d696e0000000000000000000000000000000000000000000081525060200191505060405180910390fd5b6000600260009054906101000a900473ffffffffffffffffffffffffffffffffffffffff1673ffffffffffffffffffffffffffffffffffffffff166370a08231306040518263ffffffff167c0100000000000000000000000000000000000000000000000000000000028152600401808273ffffffffffffffffffffffffffffffffffffffff1673ffffffffffffffffffffffffffffffffffffffff16815260200191505060206040518083038186803b15801561071d57600080fd5b505afa158015610731573d6000803e3d6000fd5b505050506040513d602081101561074757600080fd5b81019080805190602001909291905050509050600260009054906101000a900473ffffffffffffffffffffffffffffffffffffffff1673ffffffffffffffffffffffffffffffffffffffff16632e1a7d4d826040518263ffffffff167c010000000000000000000000000000000000000000000000000000000002815260040180828152602001915050600060405180830381600087803b1580156107eb57600080fd5b505af11580156107ff573d6000803e3d6000fd5b50505050600160009054906101000a900473ffffffffffffffffffffffffffffffffffffffff1673ffffffffffffffffffffffffffffffffffffffff1663a9059cbb83856040518363ffffffff167c0100000000000000000000000000000000000000000000000000000000028152600401808373ffffffffffffffffffffffffffffffffffffffff1673ffffffffffffffffffffffffffffffffffffffff16815260200182815260200192505050602060405180830381600087803b1580156108c857600080fd5b505af11580156108dc573d6000803e3d6000fd5b505050506040513d60208110156108f257600080fd5b8101908080519060200190929190505050506000600160009054906101000a900473ffffffffffffffffffffffffffffffffffffffff1673ffffffffffffffffffffffffffffffffffffffff166370a08231306040518263ffffffff167c0100000000000000000000000000000000000000000000000000000000028152600401808273ffffffffffffffffffffffffffffffffffffffff1673ffffffffffffffffffffffffffffffffffffffff16815260200191505060206040518083038186803b1580156109c157600080fd5b505afa1580156109d5573d6000803e3d6000fd5b505050506040513d60208110156109eb57600080fd5b810190808051906020019092919050505090506000811115610a1157610a10816114d0565b5b50505050565b60065481565b600080849050600084905060008173ffffffffffffffffffffffffffffffffffffffff1663bd6d894d6040518163ffffffff167c0100000000000000000000000000000000000000000000000000000000028152600401602060405180830381600087803b158015610a8e57600080fd5b505af1158015610aa2573d6000803e3d6000fd5b505050506040513d6020811015610ab857600080fd5b810190808051906020019092919050505090507f8d1cced004452bd270777a8c670f9f7e7c4fdde56f2db331fe289d39dc2624ad8160405180806020018381526020018281038252601b8152602001807f45786368616e6765205261746520287363616c6564207570293a2000000000008152506020019250505060405180910390a160008273ffffffffffffffffffffffffffffffffffffffff1663ae9d70b06040518163ffffffff167c0100000000000000000000000000000000000000000000000000000000028152600401602060405180830381600087803b158015610ba157600080fd5b505af1158015610bb5573d6000803e3d6000fd5b505050506040513d6020811015610bcb57600080fd5b810190808051906020019092919050505090507f8d1cced004452bd270777a8c670f9f7e7c4fdde56f2db331fe289d39dc2624ad816040518080602001838152602001828103825260188152602001807f537570706c7920526174653a20287363616c65642075702900000000000000008152506020019250505060405180910390a18373ffffffffffffffffffffffffffffffffffffffff1663095ea7b388886040518363ffffffff167c0100000000000000000000000000000000000000000000000000000000028152600401808373ffffffffffffffffffffffffffffffffffffffff1673ffffffffffffffffffffffffffffffffffffffff16815260200182815260200192505050602060405180830381600087803b158015610cf157600080fd5b505af1158015610d05573d6000803e3d6000fd5b505050506040513d6020811015610d1b57600080fd5b81019080805190602001909291905050505060008373ffffffffffffffffffffffffffffffffffffffff1663a0712d68886040518263ffffffff167c010000000000000000000000000000000000000000000000000000000002815260040180828152602001915050602060405180830381600087803b158015610d9e57600080fd5b505af1158015610db2573d6000803e3d6000fd5b505050506040513d6020811015610dc857600080fd5b8101908080519060200190929190505050905080955050505050509392505050565b6000808290506000600115158515151415610eb0578173ffffffffffffffffffffffffffffffffffffffff1663db006a75876040518263ffffffff167c010000000000000000000000000000000000000000000000000000000002815260040180828152602001915050602060405180830381600087803b158015610e6e57600080fd5b505af1158015610e82573d6000803e3d6000fd5b505050506040513d6020811015610e9857600080fd5b81019080805190602001909291905050509050610f5d565b8173ffffffffffffffffffffffffffffffffffffffff1663852a12e3876040518263ffffffff167c010000000000000000000000000000000000000000000000000000000002815260040180828152602001915050602060405180830381600087803b158015610f1f57600080fd5b505af1158015610f33573d6000803e3d6000fd5b505050506040513d6020811015610f4957600080fd5b810190808051906020019092919050505090505b6001925050509392505050565b600080600260009054906101000a900473ffffffffffffffffffffffffffffffffffffffff1673ffffffffffffffffffffffffffffffffffffffff166377c7b8fc6040518163ffffffff167c010000000000000000000000000000000000000000000000000000000002815260040160206040518083038186803b158015610ff157600080fd5b505afa158015611005573d6000803e3d6000fd5b505050506040513d602081101561101b57600080fd5b810190808051906020019092919050505090506000600260009054906101000a900473ffffffffffffffffffffffffffffffffffffffff1673ffffffffffffffffffffffffffffffffffffffff166370a08231306040518263ffffffff167c0100000000000000000000000000000000000000000000000000000000028152600401808273ffffffffffffffffffffffffffffffffffffffff1673ffffffffffffffffffffffffffffffffffffffff16815260200191505060206040518083038186803b1580156110eb57600080fd5b505afa1580156110ff573d6000803e3d6000fd5b505050506040513d602081101561111557600080fd5b810190808051906020019092919050505090508181029250505090565b600061113c610395565b90506000736b175474e89094c44da98b954eedeac495271d0f905060008290508073ffffffffffffffffffffffffffffffffffffffff1663a415bcad838660026000306040518663ffffffff167c0100000000000000000000000000000000000000000000000000000000028152600401808673ffffffffffffffffffffffffffffffffffffffff1673ffffffffffffffffffffffffffffffffffffffff1681526020018581526020018481526020018361ffff1681526020018273ffffffffffffffffffffffffffffffffffffffff1673ffffffffffffffffffffffffffffffffffffffff16815260200195505050505050600060405180830381600087803b15801561124957600080fd5b505af115801561125d573d6000803e3d6000fd5b5050505050505050565b60008390506000611276610395565b905060008190508273ffffffffffffffffffffffffffffffffffffffff1663095ea7b383876040518363ffffffff167c0100000000000000000000000000000000000000000000000000000000028152600401808373ffffffffffffffffffffffffffffffffffffffff1673ffffffffffffffffffffffffffffffffffffffff16815260200182815260200192505050602060405180830381600087803b15801561132057600080fd5b505af1158015611334573d6000803e3d6000fd5b505050506040513d602081101561134a57600080fd5b8101908080519060200190929190505050508073ffffffffffffffffffffffffffffffffffffffff1663e8eda9df87878760006040518563ffffffff167c0100000000000000000000000000000000000000000000000000000000028152600401808573ffffffffffffffffffffffffffffffffffffffff1673ffffffffffffffffffffffffffffffffffffffff1681526020018481526020018373ffffffffffffffffffffffffffffffffffffffff1673ffffffffffffffffffffffffffffffffffffffff1681526020018261ffff168152602001945050505050600060405180830381600087803b15801561144057600080fd5b505af1158015611454573d6000803e3d6000fd5b505050507f8d1cced004452bd270777a8c670f9f7e7c4fdde56f2db331fe289d39dc2624ad856040518080602001838152602001828103825260138152602001807f4465706f736974656420696e746f2041617665000000000000000000000000008152506020019250505060405180910390a1505050505050565b600160009054906101000a900473ffffffffffffffffffffffffffffffffffffffff1673ffffffffffffffffffffffffffffffffffffffff1663095ea7b3600260009054906101000a900473ffffffffffffffffffffffffffffffffffffffff16836040518363ffffffff167c0100000000000000000000000000000000000000000000000000000000028152600401808373ffffffffffffffffffffffffffffffffffffffff1673ffffffffffffffffffffffffffffffffffffffff16815260200182815260200192505050602060405180830381600087803b1580156115b757600080fd5b505af11580156115cb573d6000803e3d6000fd5b505050506040513d60208110156115e157600080fd5b810190808051906020019092919050505050600260009054906101000a900473ffffffffffffffffffffffffffffffffffffffff1673ffffffffffffffffffffffffffffffffffffffff1663b6b55f25826040518263ffffffff167c010000000000000000000000000000000000000000000000000000000002815260040180828152602001915050600060405180830381600087803b15801561168457600080fd5b505af1158015611698573d6000803e3d6000fd5b505050505056fea165627a7a723058204104937e39de984c54929ca9c1d3f58f8dd1c691527328769ed1687dd513e7650029",
  "source": "pragma solidity ^0.5.0;\r\nimport '@openzeppelin/contracts/token/ERC20/IERC20.sol';\r\nimport './IUniswapV2Router02.sol';\r\n\r\n\r\ninterface IYDAI {\r\n    function deposit (uint _amount) external;\r\n    function withdraw(uint _shares) external;\r\n    function balanceOf(address account) external view returns (uint);\r\n    function getPricePerFullShare() external view returns (uint);\r\n}\r\n\r\ninterface CERC20 {\r\n    function mint(uint256) external returns (uint256);\r\n    function exchangeRateCurrent() external returns(uint256);\r\n    function supplyRatePerBlock() external returns(uint256);\r\n    function redeem(uint) external returns(uint);\r\n    function redeemUnderlying(uint) external returns(uint);\r\n}\r\n\r\n\r\n\r\ninterface LendingPoolAddressesProvider {\r\n    function getLendingPool() external view returns (address);\r\n}\r\n\r\ninterface LendingPool{\r\n    function deposit(address asset, uint256 amount, address onBehalfOf, uint16 referralCode) external;\r\n    function borrow(address asset, uint256 amount, uint256 interestRateMode, uint16 referralCode, address onBehalfOf) external;\r\n}\r\n\r\ncontract Wallets {\r\n    address admin;\r\n    IERC20 dai = IERC20(0x6B175474E89094C44Da98b954EedeAC495271d0F);\r\n    IYDAI yDai = IYDAI(0xC2cB1040220768554cf699b0d863A3cd4324ce32);\r\n    CERC20 cDai = CERC20(0x5d3a536E4D6DbD6114cc1Ead35777bAB948E3643);\r\n    LendingPoolAddressesProvider provider = LendingPoolAddressesProvider(0xB53C1a33016B2DC2fF3653530bfF1848a515c8c5);\r\n    LendingPool lendingPool;\r\n    uint public num1;\r\n\r\n    IUniswapV2Router02 uniswap;\r\n    event MyLog(string s, uint256 _value);\r\n\r\n    // Retrieve LendingPool address\r\n    // LendingPoolAddressesProvider provider;  // mainnet address, for other addresses: https://docs.aave.com/developers/developing-on-aave/deployed-contract-instances\r\n    // LendingPool lendingPool;\r\n\r\n    // address ETHER = address(0xEeeeeEeeeEeEeeEeEeEeeEEEeeeeEeeeeeeeEEeE);\r\n    // uint256 amount = 10 * 1e18;\r\n    // uint16 referral = 0;\r\n\r\n    constructor() public {\r\n       // address uniswapAddress, address daiAddress\r\n        admin = msg.sender;\r\n        //uniswap = IUniswapV2Router02(uniswapAddress);\r\n        //dai = IERC20(0x6B175474E89094C44Da98b954EedeAC495271d0F);\r\n        //cDai = CERC20(0x5d3a536E4D6DbD6114cc1Ead35777bAB948E3643);\r\n    }\r\n\r\n    function save(uint amount) external payable {\r\n        dai.transferFrom(msg.sender, address(this), amount);\r\n        _save(amount);\r\n        \r\n    }\r\n\r\n    function spend(uint amount, address recipient) external {\r\n        require(msg.sender == admin, 'only admin');\r\n        uint balanceShares = yDai.balanceOf(address(this));\r\n        yDai.withdraw(balanceShares);\r\n        dai.transfer(recipient, amount);\r\n        uint balanceDai = dai.balanceOf(address(this));\r\n        if(balanceDai>0){\r\n            _save(balanceDai);\r\n        }\r\n    }\r\n\r\n    function _save(uint amount) internal {\r\n        dai.approve(address(yDai), amount);\r\n        yDai.deposit(amount);\r\n    }\r\n\r\n    function balance() external view returns(uint) {\r\n        uint price = yDai.getPricePerFullShare();\r\n        uint balanceShares = yDai.balanceOf(address(this));\r\n        return balanceShares * price;\r\n    }\r\n\r\n    \r\n    function supplyDAIToCompound(address dai, address cDai, uint256 _numTokensToSupply) public returns (uint){\r\n        IERC20 underlying = IERC20(dai);\r\n        CERC20 cToken = CERC20(cDai);\r\n        \r\n         uint256 exchangeRateMantissa = cToken.exchangeRateCurrent();\r\n         emit MyLog(\"Exchange Rate (scaled up): \", exchangeRateMantissa);\r\n\r\n         uint256 supplyRateMantissa = cToken.supplyRatePerBlock();\r\n         emit MyLog(\"Supply Rate: (scaled up)\", supplyRateMantissa);\r\n\r\n        \r\n\r\n        underlying.approve(address(cDai), _numTokensToSupply);\r\n\r\n        uint mintResult = cToken.mint(_numTokensToSupply);\r\n        return mintResult;\r\n    }\r\n\r\n    function redeemCDai(uint256 amount, bool redeemType, address cDai) public returns (bool) {\r\n        CERC20 cToken = CERC20(cDai);\r\n\r\n        uint256 redeemResult;\r\n\r\n        if(redeemType == true) {\r\n            redeemResult = cToken.redeem(amount);\r\n        }\r\n        else {\r\n            redeemResult = cToken.redeemUnderlying(amount);\r\n        }\r\n\r\n        return true;\r\n    }\r\n\r\n    function getLendingAddress() public view returns (address){\r\n        return provider.getLendingPool();\r\n    }\r\n\r\n    function depositToAave(address dai, uint256 amount, address to) public {\r\n        IERC20 underlying = IERC20(dai);\r\n        address _provider = getLendingAddress();\r\n        LendingPool lendingPool = LendingPool(_provider);\r\n        underlying.approve(_provider, amount);\r\n        lendingPool.deposit(address(dai), amount, to, 0);\r\n        emit MyLog(\"Deposited into Aave\", amount);\r\n    }\r\n\r\n    function borrowFromAave(uint256 amount) public {\r\n        address _provider = getLendingAddress();\r\n        address underlyingAsset = 0x6B175474E89094C44Da98b954EedeAC495271d0F;\r\n        LendingPool lendingPool = LendingPool(_provider);\r\n        lendingPool.borrow(underlyingAsset, amount, 2, 0, address(this));\r\n        //IERC20(underlyingAsset).transfer(address(this), amount);\r\n    }\r\n\r\n    function() external payable {}\r\n\r\n    \r\n\r\n}",
  "sourcePath": "D:/Users/victo/Desktop/Crypto Programming/DeFi/Compound wallet/contracts/Wallets.sol",
  "compiler": {
    "name": "solc",
    "version": "0.5.0+commit.1d4f565a.Emscripten.clang"
  },
  "schemaVersion": "3.3.2",
  "updatedAt": "2020-12-06T22:16:08.453Z",
  "networkType": "ethereum",
  "devdoc": {
    "methods": {}
  },
  "userdoc": {
    "methods": {}
  }
}